:020000040800F2
:10000000405B002079020008D93C0008490900083B
:10001000D53C0008990700083F4400080000000094
:10002000000000000000000000000000E1010008E6
:100030009D0700080000000025020008853F000819
:10004000930200089302000893020008930200083C
:10005000930200089302000893020008930200082C
:10006000930200089302000893020008930200081C
:10007000930200089302000893020008930200080C
:1000800093020008930200089302000893020008FC
:1000900093020008930200089302000893020008EC
:1000A00093020008930200089302000893020008DC
:1000B00093020008F53F000893020008930200082D
:1000C00093020008930200089302000893020008BC
:1000D000930200081D4200089302000893020008E2
:1000E000930200089302000893020008930200089C
:1000F000930200089302000893020008930200088C
:1001000093020008930200088D4000089302000843
:10011000930200089302000893020008930200086B
:10012000930200089302000893020008930200085B
:1001300000F002F800F045F80AA090E8000C8244B4
:100140008344AAF10107DA4501D100F03AF8AFF291
:10015000090EBAE80F0013F0010F18BFFB1A43F0A5
:1001600001031847506A0000706A0000103A24BF6B
:1001700078C878C1FAD8520724BF30C830C144BF0C
:1001800004680C607047000000230024002500264E
:10019000103A28BF78C1FBD8520728BF30C148BFEA
:1001A0000B607047642900F0F380782900F02C81FF
:1001B000732900F02982002070471FB51FBD10B5BC
:1001C00010BD00F0B6FA1146FFF7F7FF04F04CFA45
:1001D00000F0D4FA03B4FFF7F2FF03BC04F031F9E6
:1001E000224B19680868B0E8F00F80F30988BFF364
:1001F0006F8F4FF0000080F311884EF00D0E7047A6
:100200000000000006480068006880F3088862B6B5
:1002100061B6BFF34F8FBFF36F8F00DF00BF00BF2A
:1002200008ED00E0EFF30980BFF36F8F0F4B1A6802
:1002300020E9F00F106008B54FF0500080F31188EE
:10024000BFF34F8FBFF36F8F05F08EFC4FF00000B0
:1002500080F31188BDE8084019680868B0E8F00F1D
:1002600080F30988BFF36F8F704700BF48000020FC
:10027000EFF30580704700000948804709480047B0
:10028000FEE7FEE7FEE7FEE7FEE7FEE7FEE7FEE746
:10029000FEE7FEE704480549054A064B70470000A3
:1002A000953F00083101000840550020405B0020C8
:1002B0004057002040570020704700000FB4044909
:1002C00010B503AA029800F0A3F910BC5DF814FB66
:1002D0002C0000202DE9F0410E460446002020624B
:1002E0002046E168884730B3252805D0D4E90121AC
:1002F0009047206A401CF2E7E168204600278847C3
:10030000050018D0A5F14100192802D820354FF476
:1003100000673246294620462760FFF743FF40B179
:10032000012804D0F61D26F007060836D8E7361D4A
:10033000D6E72846DAE7206ABDE8F08170B50C46BA
:100340000546012A05D02878800600D5EA690023F1
:1003500002E0012305E05B1C934202D2E05C00282E
:10036000F9D1A869E618C01AA861286A1844286259
:100370002846AFF3008004E0D5E9012114F8010B11
:100380009047B442F8D32846AFF3008070BD000018
:100390002DE9F0410646002410687529314616A55E
:1003A00010D0AFF30080002802DA404213A507E026
:1003B00031688A0701D512A502E0490704D511A5C5
:1003C000012401E0AFF3008000210A2206F1240796
:1003D00009E0B0FBF2FCB0FBF2F302FB1C00303092
:1003E00078541846491C0028F3D123462A46304643
:1003F000BDE8F04100F085B8000000002D000000CD
:100400002B0000002000000070B504460D46214678
:100410001068AFF300802188090502D50F4A7A449D
:1004200002E00E4A7A440E32002104F1240305E072
:1004300000F00F060009965D5E54491C0028F7D1B4
:1004400020780023000704D5702D02D009B10223C3
:1004500011322046BDE8704000F053B86A670000D2
:10046000032A40F2308010F0030C00F0158011F8E0
:10047000013BBCF1020F624498BF11F801CB00F8B8
:10048000013B38BF11F8013BA2F1040298BF00F80C
:1004900001CB38BF00F8013B11F0030300F0CA8024
:1004A000083AC0F0088051F8043B083A51F804CBF0
:1004B000A0E80810F5E7121D5CBF51F8043B40F8B6
:1004C000043BAFF30080D20724BF11F8013B11F8C1
:1004D00001CB48BF11F8012B24BF00F8013B00F805
:1004E00001CB48BF00F8012B704702F0FF0343EA3D
:1004F000032242EA024200F0D1B8704770477047C9
:1005000070472DE9F0470D4699469246044600F1A2
:1005100024080168880604D5E06921F010012160F3
:1005200000E00120A84201DD471B00E00027A1698F
:100530007A1902EB0900081AA0612078C00602D4DB
:100540002046AFF30080002608E0D4E901211AF824
:1005500006009047206A401C761C20624E45F4DB62
:100560002078C0060AD52046AFF3008006E0D4E923
:10057000012130209047206A401C2062381EA7F1DC
:100580000107F4DC07E0D4E9012118F805009047E1
:10059000206A401C2062281EA5F10105F3DC2046DC
:1005A000AFF300802078000602D50220BDE8F08776
:1005B0000120FBE701694A1C02610878704700B519
:1005C0008FB0CDE901310021059105497944CDE98C
:1005D000031011466846FFF77DFE0FB000BD000016
:1005E000E5FFFFFF10B5436913B1AFF3008001E0F1
:1005F000FFF7A4FE012010BD127800F124010A705B
:1006000000224A700122EDE711684FF0FF32E9E75E
:10061000074B70B50D467B44FFF7D1FF04462846D3
:1006200000F05CF810B14FF0FF3070BD204670BD97
:100630008B3F000010B5203AC0F00B80B1E8185095
:10064000203AA0E81850B1E81850A0E81850BFF4BC
:10065000F5AF5FEA027C24BFB1E81850A0E818505B
:1006600044BF18C918C0BDE810405FEA827C24BFAF
:1006700051F8043B40F8043B08BF7047D20728BF3D
:1006800031F8023B48BF11F8012B28BF20F8023B8C
:1006900048BF00F8012B70474FF000020429C0F05A
:1006A000128010F0030C00F01F80CCF1040CBCF1A0
:1006B000020F18BF00F8012BA8BF20F8022BA1EBF6
:1006C0000C0100F011B85FEAC17C24BF00F8012BD7
:1006D00000F8012B48BF00F8012B7047007B00F0A9
:1006E000800070474FF0000200B5134694469646CE
:1006F000203922BFA0E80C50A0E80C50B1F1200135
:10070000BFF4F7AF090728BFA0E80C5048BF0CC0E2
:100710005DF804EB890028BF40F8042B08BF704740
:1007200048BF20F8022B11F0804F18BF00F8012BB2
:100730007047754600F02CF8AE46050069465346F2
:1007400020F00700854618B020B5FFF7A3FDBDE8EF
:1007500020404FF000064FF000074FF000084FF028
:10076000000B21F00701AC46ACE8C009ACE8C009B9
:10077000ACE8C009ACE8C0098D46704710B5044626
:10078000AFF300802046BDE81040FFF723BD000016
:1007900000487047E054002000BFFEE770472DE995
:1007A000F0410246002500260020002300240027F7
:1007B00091F803C00CF00F0591F803C00CF0100C79
:1007C000BCF1000F03D091F802C04CEA050591F886
:1007D00000C0BCF1000F31D0146800202BE04FF0B6
:1007E000010C0CFA00F3B1F800C00CEA03069E42BB
:1007F00020D183004FF00F0C0CFA03F7BC4305FA2D
:1008000003FC4CEA040491F803C0BCF1280F06D1A4
:100810004FF0010C0CFA00FCC2F814C00AE091F889
:1008200003C0BCF1480F05D14FF0010C0CFA00FCDD
:10083000C2F810C0401C0828D1D31460B1F800C021
:10084000BCF1FF0F34DD546800202EE000F1080CED
:100850004FF0010808FA0CF3B1F800C00CEA0306E7
:100860009E4221D183004FF00F0C0CFA03F7BC43DA
:1008700005FA03FC4CEA040491F803C0BCF1280F0C
:1008800005D100F1080C08FA0CF8C2F8148091F8B0
:1008900003C0BCF1480F07D100F1080C4FF001086C
:1008A00008FA0CF8C2F81080401C0828CED3546017
:1008B000BDE8F081F0B50A460023002400210025A0
:1008C00000F00046B6F1004F02D11D4EF16901E083
:1008D0001B4E7168C0F3034583B200F44016B6F5B1
:1008E000401F08D121F07061154E766826F07066C1
:1008F000134F7E6012E000F48016B6F5801F06D11B
:10090000032606FA05F4A14341F0706106E0460DA6
:10091000360103FA06F6B14341F0706122B1460D8B
:10092000360103FA06F6314300F00046B6F1004FF7
:1009300002D1034EF16101E0014E7160F0BD000093
:10094000000001400161704700BFFEE770B504463A
:1009500000260E480588408845430021084602F0DD
:10096000DFFF03F06FF900BF0DE04FF4807008491E
:1009700008614000486107480460802048610861C0
:1009800080000861761CAE42EFD370BD8401002068
:10099000001001400C0C014000B50748808845F26A
:1009A0001051884204D14FF4245003F039F902E089
:1009B000292003F035F900BD8401002010B504465C
:1009C00049488471002C45D1F020474908804FF4F4
:1009D000A07048800846808845F21051884210D1A6
:1009E0004FF43050404908814FF4285048814FF46B
:1009F0002C5088814FF4F07008804FF44870488084
:100A00001AE03948808841F6631188420DD12C20C4
:100A1000354908812B2048812A2088814FF4F070C5
:100A200008804FF44870488006E02C202E49088149
:100A30002A2048812B2088812B48808845F210315C
:100A400088424CD14FF4A070274908804FF4F070D1
:100A5000488044E04FF4A07023490880F02048808B
:100A60000846808845F21051884210D14FF430502A
:100A70001D4908814FF4285048814FF42C5088813B
:100A80004FF4487008804FF4F07048801AE0164820
:100A9000808841F6631188420DD12C2012490881CB
:100AA0002A2048812B2088814FF4487008804FF419
:100AB000F070488006E02C200B4908812A204881EC
:100AC0002B2088810848808845F21031884206D161
:100AD0004FF4F070044908804FF4A0704880002063
:100AE00002F04EFD10BD00008401002008B5012178
:100AF000192003F045F90121FE48FFF7DBFE4FF412
:100B0000F860ADF8000010208DF8030003208DF888
:100B100002006946F848FFF742FE4FF4F861F648D4
:100B2000FFF710FF4FF6FF70ADF800006946F3487D
:100B3000FFF735FE4FF6FF71F048FFF703FF322055
:100B400003F0A2FC0121002003F084F8322003F01E
:100B50009BFCD32003F064F802F078FCE84988801D
:100B600002F074FCE649888002F070FCE449888059
:100B7000084680884FF6FF7101EA0020E04988802E
:100B800002F064FCDE4989880843DD498880084614
:100B9000808849F2413188427DD0042003F040F83A
:100BA00002F054FCD649888002F050FCD449888079
:100BB00002F04CFCD2498880084680884FF6FF71CD
:100BC00001EA0020CE49888002F040FCCC498988A7
:100BD0000843CB4988800846808848F252518842B1
:100BE00003D147F28970C6498880C548808847F29A
:100BF00089718842D0D0D42003F012F802F026FC8C
:100C0000BF49888002F022FCBD49888002F01EFCAA
:100C1000BB498880084680884FF6FF7101EA0020B2
:100C2000B749888002F012FCB54989880843B44965
:100C300088800846808845F21031884262D055216C
:100C40004FF4704003F006F8AA214FF2010003F0C0
:100C500001F852214FF2020002F0FCFF08214FF28E
:100C6000030002F0F7FF01214FF2040002F0F2FF4F
:100C70004FF4454002F0D4FF02F0E8FBA049888021
:100C8000084680884FF6FF7101EA00209C49888061
:100C90004CF2015000E035E002F0C2FF02F0D6FB5A
:100CA00097498988084396498880052003F0ECFB22
:100CB0009348808845F21051884223D0A12002F049
:100CC000AFFF02F0C3FB8E49888002F0BFFB8C4966
:100CD0008880084680884FF6FF7101EA0020884925
:100CE000888002F0B3FB864989880843844988805C
:100CF0000846808845F26171884203D141F663104D
:100D00007F4988807E4881887EA0FFF7D7FA7C489B
:100D1000808849F2413188427ED1CF2002F080FFA5
:100D2000002002F06BFFC12002F068FF302002F0CB
:100D300065FFED2002F074FF642002F05FFF0320E6
:100D400002F05CFF122002F059FF812002F056FFF2
:100D5000E82002F065FF852002F050FF102002F02D
:100D60004DFF7A2002F04AFFCB2002F059FF3920D4
:100D700002F044FF2C2002F041FF002002F03EFF71
:100D8000342002F03BFF022002F038FFF72002F08F
:100D900047FF202002F032FFEA2002F041FF00204E
:100DA00002F02CFF002002F029FFC02002F038FFE3
:100DB0001B2002F023FFC12002F032FF012002F0CD
:100DC0001DFFC52002F02CFF302002F017FF30205D
:100DD00002F014FFC72002F023FFB72002F00EFF3D
:100DE000362002F01DFF482002F008FF3A2002F0F2
:100DF00017FF552002F002FFB12002F011FF002082
:100E000002F0FCFE1A2002F0F9FEB62002F008FF04
:100E10000A2002F0F3FE00E0A8E0A22002F0EEFEBD
:100E2000F22002F0FDFE002002F0E8FE262002F093
:100E3000F7FE012002F0E2FEE02002F0F1FE0F20BA
:100E400002F0DCFE2A2002F0D9FE282002F0D6FEB5
:100E5000082002F0D3FE0E2002F0D0FE082002F09F
:100E6000CDFE542002F0CAFEA92002F0C7FE4320A6
:100E700002F0C4FE0A2002F0C1FE0F2002F0BEFE06
:100E8000002002F0BBFE002002F0B8FE002002F0BD
:100E9000B5FE002002F0B2FEE12002F0C1FE00200B
:100EA00002F0ACFE152002F0A9FE172002F0A6FE0B
:100EB000072002F0A3FE112002F0A0FE062002F09F
:100EC0009DFE2B2002F09AFE562002F097FE3C2059
:100ED00002F094FE052002F091FE102002F08EFE3A
:100EE0000F2002F08BFE3F2002F088FE3F2002F030
:100EF00085FE0FE00002300000100140000C0140B0
:100F000084010020204C43442049443A25780D0AAE
:100F1000000000000F2002F071FE2B2002F080FE86
:100F2000002002F06BFE002002F068FE012002F0BB
:100F300065FE3F2002F062FE2A2002F071FE0020D2
:100F400002F05CFE002002F059FE002002F056FE86
:100F5000EF2002F053FE112002F062FE782003F031
:100F600093FA292002F05CFE02F05FBAFE48808806
:100F700047F2897188427CD1112002F051FE78201D
:100F800003F082FA362002F04BFE002002F036FE1B
:100F90003A2002F045FE052002F030FEB22002F0B9
:100FA0003FFE0C2002F02AFE0C2002F027FE00205B
:100FB00002F024FE332002F021FE332002F01EFE58
:100FC000B72002F02DFE352002F018FEBB2002F003
:100FD00027FE322002F012FEC02002F021FE0C207B
:100FE00002F00CFEC22002F01BFE012002F006FE01
:100FF000C32002F015FE102002F000FEC42002F013
:101000000FFE202002F0FAFDC62002F009FE0F209C
:1010100002F0F4FDD02002F003FEA42002F0EEFD69
:10102000A12002F0EBFDE02002F0FAFDD02002F05A
:10103000E5FD002002F0E2FD022002F0DFFD0720C6
:1010400002F0DCFD0A2002F0D9FD282002F0D6FDD6
:10105000322002F0D3FD442002F0D0FD422002F005
:10106000CDFD062002F0CAFD0E2002F0C7FD1220C1
:1010700000E056E002F0C2FD142002F0BFFD172090
:1010800002F0BCFDE12002F0CBFDD02002F0B6FD65
:10109000002002F0B3FD022002F0B0FD072002F0B4
:1010A000ADFD0A2002F0AAFD282002F0A7FD3120A4
:1010B00002F0A4FD542002F0A1FD472002F09EFDA5
:1010C0000E2002F09BFD1C2002F098FD172002F07C
:1010D00095FD1B2002F092FD1E2002F08FFD2A20BC
:1010E00002F09EFD002002F089FD002002F086FD46
:1010F000002002F083FDEF2002F080FD2B2002F0A3
:101100008FFD002002F07AFD002002F077FD012023
:1011100002F074FD3F2002F071FD292002F080FDF5
:1011200022E79148808845F21031884240F07C8760
:10113000ED2002F075FD012002F060FDFE2002F0BE
:101140005DFDEE2002F06CFDDE2002F057FD212057
:1011500002F054FDF12002F063FD012002F04EFD8B
:10116000DF2002F05DFD102002F048FDC42002F0F7
:1011700057FD8F2002F042FDC62002F051FD0020F5
:1011800002F03CFDE22002F039FDE22002F036FDE3
:10119000E22002F033FDBF2002F042FDAA2002F05F
:1011A0002DFDB02002F03CFD0D2002F027FD0020B7
:1011B00002F024FD0D2002F021FD002002F01EFDB2
:1011C000112002F01BFD002002F018FD192002F092
:1011D00015FD002002F012FD212002F00FFD00207D
:1011E00002F00CFD2D2002F009FD002002F006FDAA
:1011F0003D2002F003FD002002F000FD5D2002F022
:10120000FDFC002002F0FAFC5D2002F0F7FC00205B
:1012100002F0F4FCB12002F003FD802002F0EEFCAD
:10122000002002F0EBFC8B2002F0E8FC002002F032
:10123000E5FC962002F0E2FC002002F0DFFCB22088
:1012400002F0EEFC002002F0D9FC002002F0D6FCF7
:10125000022002F0D3FC002002F0D0FC032002F0B8
:10126000CDFC002002F0CAFCB32002F0D9FC002023
:1012700002F0C4FC002002F0C1FC002002F0BEFC21
:10128000002002F0BBFC002002F0B8FC002002F0BD
:10129000B5FC002002F0B2FC002002F0AFFC002000
:1012A00002F0ACFC002002F0A9FC002002F0A6FC39
:1012B000002002F0A3FC002002F0A0FC002002F0BD
:1012C0009DFC002002F09AFC002002F097FC002018
:1012D00002F094FC002002F091FC002002F08EFC51
:1012E000002002F08BFC002002F088FC002002F0BD
:1012F00085FC002002F082FC002002F07FFCB4207C
:1013000002F08EFC8B2002F079FC002002F076FCCB
:10131000962002F073FC002002F070FCA12002F085
:101320006DFC002002F06AFCB52002F079FC02207E
:1013300002F064FC002002F061FC032002F05EFC7D
:10134000002002F05BFC042002F058FC002002F0B8
:1013500055FCB62002F064FC002002F04FFC002097
:1013600002F04CFCB72001E08401002002F058FCA0
:10137000002002F043FC002002F040FC3F2002F07D
:101380003DFC002002F03AFC5E2002F037FC002019
:1013900002F034FC642002F031FC002002F02EFC4C
:1013A0008C2002F02BFC002002F028FCAC2002F084
:1013B00025FC002002F022FCDC2002F01FFC0020B3
:1013C00002F01CFC702002F019FC002002F016FC58
:1013D000902002F013FC002002F010FCEB2002F041
:1013E0000DFC002002F00AFCDC2002F007FC0020CB
:1013F00002F004FCB82002F013FC002002F0FEFB17
:10140000002002F0FBFB002002F0F8FB002002F0BD
:10141000F5FB002002F0F2FB002002F0EFFB0020C1
:1014200002F0ECFB002002F0E9FBBA2002F0F8FB2E
:10143000242002F0E3FB002002F0E0FB002002F099
:10144000DDFB002002F0DAFBC12002F0E9FB2020E6
:1014500002F0D4FB002002F0D1FB542002F0CEFBBE
:10146000002002F0CBFBFF2002F0C8FB002002F0BE
:10147000C5FBC22002F0D4FB0A2002F0BFFB002013
:1014800002F0BCFB042002F0B9FB002002F0B6FB26
:10149000C32002F0C5FB3C2002F0B0FB002002F0AC
:1014A000ADFB3A2002F0AAFB002002F0A7FB392096
:1014B00002F0A4FB002002F0A1FB372002F09EFB0B
:1014C000002002F09BFB3C2002F098FB002002F081
:1014D00095FB362002F092FB002002F08FFB3220B9
:1014E00002F08CFB002002F089FB2F2002F086FB2B
:1014F000002002F083FB2C2002F080FB002002F091
:101500007DFB292002F07AFB002002F077FB2620E9
:1015100002F074FB002002F071FB242002F06EFB4D
:10152000002002F06BFB242002F068FB002002F098
:1015300065FB232002F062FB002002F05FFB3C20F1
:1015400002F05CFB002002F059FB362002F056FB53
:10155000002002F053FB322002F050FB002002F08A
:101560004DFB2F2002F04AFB002002F047FB2C200D
:1015700002F044FB002002F041FB292002F03EFB78
:10158000002002F03BFB262002F038FB002002F096
:1015900035FB242002F032FB002002F02FFB242038
:1015A00002F02CFB002002F029FB232002F026FB96
:1015B000002002F023FBC42002F032FB622002F084
:1015C0001DFB002002F01AFB052002F017FB002093
:1015D00002F014FB842002F011FB002002F00EFB4D
:1015E000F02002F00BFB002002F008FB182002F0B4
:1015F00005FB002002F002FBA42002F0FFFA00200D
:1016000002F0FCFA182002F0F9FA002002F0F6FAD3
:10161000502002F0F3FA002002F0F0FA0C2002F061
:10162000EDFA002002F0EAFA172002F0E7FA0020B3
:1016300002F0E4FA952002F0E1FA002002F0DEFA6E
:10164000F32002F0DBFA002002F0D8FAE62002F0E4
:10165000D5FA002002F0D2FAC52002F0E1FA3220D9
:1016600002F0CCFA002002F0C9FA442002F0C6FAD7
:10167000002002F0C3FA652002F0C0FA002002F058
:10168000BDFA762002F0BAFA002002F0B7FA8820FC
:1016900002F0B4FA002002F0B1FAC62002F0C0FA5B
:1016A000202002F0ABFA002002F0A8FA172002F086
:1016B000A5FA002002F0A2FA012002F09FFA002011
:1016C00002F09CFAC72002F0ABFA002002F096FA72
:1016D000002002F093FA002002F090FA002002F0BD
:1016E0008DFAC82002F09CFA002002F087FA002050
:1016F00002F084FA002002F081FA002002F07EFA63
:10170000C92002F08DFA002002F078FA002002F0E1
:1017100075FA002002F072FA002002F06FFA002041
:1017200002F06CFA002002F069FA002002F066FA7A
:10173000002002F063FA002002F060FA002002F0BC
:101740005DFA002002F05AFA002002F057FA002059
:1017500002F054FA002002F051FA002002F04EFA92
:10176000002002F04BFAE02002F05AFA162002F0B4
:1017700045FA002002F042FA1C2002F03FFA002055
:1017800002F03CFA212002F039FA002002F036FA89
:10179000362002F033FA002002F030FA462002F040
:1017A0002DFA002002F02AFA522002F027FA002037
:1017B00002F024FA642002F021FA002002F01EFA5E
:1017C0007A2002F01BFA002002F018FA8B2002F0B7
:1017D00015FA002002F012FA992002F00FFA002008
:1017E00002F00CFAA82002F009FA002002F006FA32
:1017F000B92002F003FA002002F000FAC42002F03F
:10180000FDF9002002F0FAF9CA2002F0F7F90020F1
:1018100002F0F4F9D22002F0F1F9002002F0EEF922
:10182000D92002F0EBF9002002F0E8F9E02002F004
:10183000E5F9002002F0E2F9F32002F0DFF90020E0
:1018400002F0DCF9E12002F0EBF9162002F0D6F903
:10185000002002F0D3F91C2002F0D0F9002002F0A1
:10186000CDF9222002F0CAF9002002F0C7F9362093
:1018700002F0C4F9002002F0C1F9452002F0BEF9DF
:10188000002002F0BBF9522002F0B8F9002002F06B
:10189000B5F9642002F0B2F9002002F0AFF97A2025
:1018A00002F0ACF9002002F0A9F98B2002F0A6F9B1
:1018B000002002F0A3F9992002F0A0F9002002F024
:1018C0009DF9A82002F09AF9002002F097F9B920BA
:1018D00002F094F9002002F091F9C42002F08EF990
:1018E000002002F08BF9CA2002F088F9002002F0F3
:1018F00085F9D22002F082F9002002F07FF9D82089
:1019000002F07CF9002002F079F9E02002F076F98B
:10191000002002F073F9F32002F070F9002002F0C9
:101920006DF9E22002F07CF9052002F067F9002051
:1019300002F064F90B2002F061F9002002F05EF978
:101940001B2002F05BF9002002F058F9342002F06D
:1019500055F9002002F052F9442002F04FF900201E
:1019600002F04CF94F2002F049F9002002F046F94C
:10197000612002F043F9002002F040F9792002F0E2
:101980003DF9002002F03AF9882002F037F90020F2
:1019900002F034F9972002F031F9002002F02EF91C
:1019A000A62002F02BF9002002F028F9B72002F05F
:1019B00025F9002002F022F9C22002F01FF90020D0
:1019C00002F01CF9C72002F019F9002002F016F904
:1019D000D12002F013F9002002F010F9D62002F015
:1019E0000DF9002002F00AF9DD2002F007F90020CD
:1019F00002F004F9F32002F001F9002002F0FEF8F1
:101A0000E32002F00DF9052002F0F8F8002002F0C2
:101A1000F5F80A2002F0F2F8002002F0EFF81C209E
:101A200002F0ECF8002002F0E9F8332002F0E6F8CA
:101A3000002002F0E3F8442002F0E0F8002002F079
:101A4000DDF8502002F0DAF8002002F0D7F862202A
:101A500002F0D4F8002002F0D1F8782002F0CEF89D
:101A6000002002F0CBF8882002F0C8F8002002F035
:101A7000C5F8972002F0C2F8002002F0BFF8A620B7
:101A800002F0BCF8002002F0B9F8B72002F0B6F876
:101A9000002002F0B3F8C22002F0B0F8002002F0FB
:101AA000ADF8C72002F0AAF8002002F0A7F8D12074
:101AB00002F0A4F8002002F0A1F8D52002F09EF870
:101AC000002002F09BF8DD2002F098F8002002F0E0
:101AD00095F8F32002F092F8002002F08FF8E4204D
:101AE00002F09EF8012002F089F8002002F086F84A
:101AF000012002F083F8002002F080F8022002F0BA
:101B00007DF8002002F07AF82A2002F077F8002011
:101B100002F074F83C2002F071F8002002F06EF838
:101B20004B2002F06BF8002002F068F85D2002F014
:101B300065F8002002F062F8742002F05FF80020DF
:101B400002F05CF8842002F059F8002002F056F808
:101B5000932002F053F8002002F050F8A22002F087
:101B60004DF8002002F04AF8B32002F047F80020B8
:101B700002F044F8BE2002F041F8002002F03EF8E6
:101B8000C42002F03BF8002002F038F8CD2002F02B
:101B900035F8002002F032F8D32002F02FF80020B0
:101BA00002F02CF8DD2002F029F8002002F026F8DF
:101BB000F32002F023F8002002F020F8E52002F0E4
:101BC0002FF8002002F01AF8002002F017F8002089
:101BD00002F014F8002002F011F8022002F00EF8D2
:101BE000002002F00BF8292002F008F8002002F093
:101BF00005F83C2002F002F8002001F0FFFF4B2026
:101C000001F0FCFF002001F0F9FF5D2001F0F6FF7C
:101C1000002001F0F3FF742001F0F0FF002001F03C
:101C2000EDFF842001F0EAFF002001F0E7FF9320A0
:101C300001F0E4FF002001F0E1FFA22001F0DEFF4F
:101C4000002001F0DBFFB32001F0D8FF002001F0FD
:101C5000D5FFBE2001F0D2FF002001F0CFFFC4204D
:101C600001F0CCFF002001F0C9FFCD2001F0C6FF3C
:101C7000002001F0C3FFD32001F0C0FF002001F0DD
:101C8000BDFFDC2001F0BAFF002001F0B7FFF32018
:101C900001F0B4FF002001F0B1FFE62001F0C0FF29
:101CA000112001F0ABFF002001F0A8FF342001F06B
:101CB000A5FF002001F0A2FF562001F09FFF0020A9
:101CC00001F09CFF762001F099FF002001F096FFC3
:101CD000772001F093FF002001F090FF662001F0D3
:101CE0008DFF002001F08AFF882001F087FF00208F
:101CF00001F084FF992001F081FF002001F07EFFB8
:101D0000BB2001F07BFF002001F078FF992001F05B
:101D100075FF002001F072FF662001F06FFF0020C8
:101D200001F06CFF552001F069FF002001F066FF13
:101D3000552001F063FF002001F060FF452001F015
:101D40005DFF002001F05AFF432001F057FF002003
:101D500001F054FF442001F051FF002001F04EFF3C
:101D6000E72001F05DFF322001F048FF002001F084
:101D700045FF552001F042FF002001F03FFF762093
:101D800001F03CFF002001F039FF662001F036FF32
:101D9000002001F033FF672001F030FF002001F048
:101DA0002DFF672001F02AFF002001F027FF872088
:101DB00001F024FF002001F021FF992001F01EFF17
:101DC000002001F01BFFBB2001F018FF002001F0F4
:101DD00015FF992001F012FF002001F00FFF77207E
:101DE00001F00CFF002001F009FF442001F006FF84
:101DF000002001F003FF562001F000FF002001F059
:101E0000FDFE232001F0FAFE002001F0F7FE332052
:101E100001F0F4FE002001F0F1FE452001F0EEFE9D
:101E2000002001F0EBFEE82001F0FAFE002001F0B6
:101E3000E5FE002001F0E2FE992001F0DFFE002027
:101E400001F0DCFE872001F0D9FE002001F0D6FE73
:101E5000882001F0D3FE002001F0D0FE772001F0B1
:101E6000CDFE002001F0CAFE662001F0C7FE002072
:101E700001F0C4FE882001F0C1FE002001F0BEFE8A
:101E8000AA2001F0BBFE002001F0B8FEBB2001F04B
:101E9000B5FE002001F0B2FE992001F0AFFE002057
:101EA00001F0ACFE662001F0A9FE002001F0A6FEC4
:101EB000552001F0A3FE002001F0A0FE552001F006
:101EC0009DFE002001F09AFE442001F097FE0020C4
:101ED00001F094FE442001F091FE002001F08EFEFE
:101EE000552001F08BFE002001F088FEE92001F072
:101EF00097FEAA2001F082FE002001F07FFE002064
:101F000001F07CFE002001F079FE002001F088FE47
:101F1000AA2001F073FECF2001F082FE002001F024
:101F20006DFE002001F06AFE002001F067FE002037
:101F300001F064FE002001F061FE002001F05EFE71
:101F4000002001F05BFE002001F058FE002001F0AF
:101F500055FE002001F052FE002001F04FFE00204F
:101F600001F04CFE002001F049FE002001F046FE89
:101F7000002001F043FE002001F040FE002001F0AF
:101F80003DFEF02001F04CFE002001F037FE502015
:101F900001F034FE002001F031FE002001F02EFEA1
:101FA000002001F02BFEF32001F03AFE002001F0AA
:101FB00025FEF92001F034FE062001F01FFE10205E
:101FC00001F01CFE292001F019FE002001F016FE90
:101FD0003A2001F025FE552001F010FE112001F0FD
:101FE0001FFE642002F050FA292001F019FE35206E
:101FF00001F016FE002001F001FE512001F010FE5C
:10200000FF2001F0FBFD532001F00AFE2C2001F01F
:10201000F5FD552001F004FE822001F0EFFD2C209B
:1020200001F0FEFD01F001BAFE48808845F2105132
:1020300088427DD155214FF4704001F00BFEAA215A
:102040004FF2010001F006FE52214FF2020001F0B2
:1020500001FE08214FF2030001F0FCFD01214FF2C7
:10206000040001F0F7FD0D214FF4304001F0F2FDC6
:102070000D214BF2010001F0EDFD0D214BF20200AC
:1020800001F0E8FD34214FF4364001F0E3FD342146
:102090004BF2016001F0DEFD34214BF2026001F0F1
:1020A000D9FD0D214FF4314001F0D4FD0D214BF24B
:1020B000011001F0CFFD0D214BF2021001F0CAFD1D
:1020C00034214FF4374001F0C5FD34214BF201704B
:1020D00001F0C0FD34214BF2027001F0BBFD002184
:1020E0004FF4324001F0B6FD00214BF2012001F027
:1020F000B1FD00214BF2022001F0ACFD24214FF490
:10210000384001F0A7FD24214BF6010001F0A2FDAB
:1021100024214BF6020001F09DFD01214FF43F40C8
:1021200001F098FD0F214FF4334001F093FD00E0E2
:10213000FDE30F214BF2013001F08CFD0F214BF23A
:10214000023001F087FD34214FF4394001F082FD67
:1021500034214BF6011001F07DFD34214BF60210C5
:1021600001F078FD08214FF4354001F073FD08219E
:102170004BF2015001F06EFD08214BF2025001F0CC
:1021800069FD03214FF4424001F064FD24214FF426
:102190003A4001F05FFD24214BF6012001F05AFD89
:1021A00024214BF6022001F055FD00214FF43C4064
:1021B00001F050FD78214BF6014001F04BFD00216C
:1021C0004BF6024001F046FD00214FF43D4001F086
:1021D00041FD78214BF6015001F03CFD00214BF60A
:1021E000025001F037FD00214FF43E4001F032FD76
:1021F00064214BF6016001F02DFD00214FF45140A8
:1022000001F028FD33214DF2011001F023FD0021E2
:102210004DF2021001F01EFD34214DF2031001F0C9
:1022200019FD00214DF2041001F014FD3A214DF288
:10223000051001F00FFD00214DF2061001F00AFD1E
:102240004A214DF2071001F005FD00214DF2081062
:1022500001F000FD5C214DF2091001F0FBFC0021B2
:102260004DF20A1001F0F6FC81214DF20B1001F045
:10227000F1FC00214DF20C1001F0ECFCA6214DF216
:102280000D1001F0E7FC00214DF20E1001F0E2FC10
:10229000E5214DF20F1001F0DDFC01214DF210108F
:1022A00001F0D8FC13214DF2111001F0D3FC0121F3
:1022B0004DF2121001F0CEFC54214DF2131001F03A
:1022C000C9FC01214DF2141001F0C4FC82214DF231
:1022D000151001F0BFFC01214DF2161001F0BAFCFF
:1022E000CA214DF2171001F0B5FC02214DF2181071
:1022F00001F0B0FC00214DF2191001F0ABFC0221FD
:102300004DF21A1001F0A6FC01214DF21B1001F054
:10231000A1FC02214DF21C1001F09CFC34214DF275
:102320001D1001F097FC02214DF21E1001F092FCED
:1023300067214DF21F1001F08DFC02214DF220109B
:1023400001F088FC84214DF2211001F083FC022170
:102350004DF2221001F07EFCA4214DF2231001F079
:1023600079FC02214DF2241001F074FCB7214DF2EA
:10237000251001F06FFC02214DF2261001F06AFCDD
:10238000CF214DF2271001F065FC02214DF22810FB
:1023900001F060FCDE214DF2291001F05BFC02210E
:1023A0004DF22A1001F056FCF2214DF22B1001F0F3
:1023B00051FC02214DF22C1001F04CFCFE214DF29B
:1023C0002D1001F047FC03214DF22E1001F042FCCC
:1023D00010214DF22F1001F03DFC03214DF2301081
:1023E00001F038FC33214DF2311001F033FC0321B0
:1023F0004DF2321001F02EFC6D214DF2331001F040
:1024000029FC00214FF4524001F024FC33214DF20D
:10241000012001F01FFC00214DF2022001F01AFC06
:10242000342101E0840100204DF2032001F012FC70
:1024300000214DF2042001F00DFC3A214DF205205F
:1024400001F008FC00214DF2062001F003FC4A21B6
:102450004DF2072001F0FEFB00214DF2082001F0B3
:10246000F9FB5C214DF2092001F0F4FB00214DF253
:102470000A2001F0EFFB81214DF20B2001F0EAFB75
:1024800000214DF20C2001F0E5FBA6214DF20D20BC
:1024900001F0E0FB00214DF20E2001F0DBFBE52115
:1024A0004DF20F2001F0D6FB01214DF2102001F07A
:1024B000D1FB13214DF2112001F0CCFB01214DF293
:1024C000122001F0C7FB54214DF2132001F0C2FB92
:1024D00001214DF2142001F0BDFB82214DF21520A7
:1024E00001F0B8FB01214DF2162001F0B3FBCA2127
:1024F0004DF2172001F0AEFB02214DF2182001F041
:10250000A9FB00214DF2192001F0A4FB02214DF29C
:102510001A2001F09FFB01214DF21B2001F09AFBD4
:1025200002214DF21C2001F095FB34214DF21D20BB
:1025300001F090FB02214DF21E2001F08BFB672180
:102540004DF21F2001F086FB02214DF2202001F008
:1025500081FB84214DF2212001F07CFB02214DF210
:10256000222001F077FBA4214DF2232001F072FB21
:1025700002214DF2242001F06DFBB7214DF2252000
:1025800001F068FB02214DF2262001F063FBCF2110
:102590004DF2272001F05EFB02214DF2282001F0D0
:1025A00059FBDE214DF2292001F054FB02214DF2AE
:1025B0002A2001F04FFBF2214DF22B2001F04AFBC3
:1025C00002214DF22C2001F045FBFE214DF22D2081
:1025D00001F040FB03214DF22E2001F03BFB1021C6
:1025E0004DF22F2001F036FB03214DF2302001F097
:1025F00031FB33214DF2312001F02CFB03214DF250
:10260000322001F027FB6D214DF2332001F022FB37
:1026100000214FF4534001F01DFB33214DF20130F6
:1026200001F018FB00214DF2023001F013FB3421C0
:102630004DF2033001F00EFB00214DF2043001F0A9
:1026400009FB3A214DF2053001F004FB00214DF267
:10265000063001F0FFFA4A214DF2073001F0FAFA94
:1026600000214DF2083001F0F5FA5C214DF20930FD
:1026700001F0F0FA00214DF20A3001F0EBFA81216D
:102680004DF20B3001F0E6FA00214DF20C3001F072
:10269000E1FAA6214DF20D3001F0DCFA00214DF2F5
:1026A0000E3001F0D7FAE5214DF20F3001F0D2FAE9
:1026B00001214DF2103001F0CDFA13214DF211300D
:1026C00001F0C8FA01214DF2123001F0C3FA542191
:1026D0004DF2133001F0BEFA01214DF2143001F039
:1026E000B9FA82214DF2153001F0B4FA01214DF210
:1026F000163001F0AFFACA214DF2173001F0AAFAF4
:1027000002214DF2183001F0A5FA00214DF21930E6
:1027100001F0A0FA02214DF21A3001F09BFA0121DA
:102720004DF21B3001F096FA02214DF21C3001F0FF
:1027300091FA34214DF21D3001F08CFA02214DF254
:102740001E3001F087FA67214DF21F3001F082FA46
:1027500002214DF2203001F07DFA84214DF221302A
:1027600001F078FA02214DF2223001F073FAA4212F
:102770004DF2233001F06EFA02214DF2243001F0C7
:1027800069FAB7214DF2253001F064FA02214DF2C9
:10279000263001F05FFACF214DF2273001F05AFACE
:1027A00002214DF2283001F055FADE214DF2293098
:1027B00001F050FA02214DF22A3001F04BFAF221D9
:1027C0004DF22B3001F046FA02214DF22C3001F08F
:1027D00041FAFE214DF22D3001F03CFA03214DF279
:1027E0002E3001F037FA10214DF22F3001F032FA7D
:1027F00003214DF2303001F02DFA33214DF231300A
:1028000001F028FA03214DF2323001F023FA6D2154
:102810004DF2333001F01EFA00214FF4544001F024
:1028200019FA33214DF2014001F014FA00214DF262
:10283000024001F00FFA34214DF2034001F00AFA90
:1028400000214DF2044001F005FA3A214DF2054015
:1028500001F000FA00214DF2064001F0FBF94A2197
:102860004DF2074001F0F6F900214DF2084001F069
:10287000F1F95C214DF2094001F0ECF900214DF233
:102880000A4001F0E7F981214DF20B4001F0E2F935
:1028900000214DF20C4001F0DDF9A6214DF20D4072
:1028A00001F0D8F900214DF20E4001F0D3F9E521F5
:1028B0004DF20F4001F0CEF901214DF2104001F030
:1028C000C9F913214DF2114001F0C4F901214DF273
:1028D000124001F0BFF954214DF2134001F0BAF952
:1028E00001214DF2144001F0B5F982214DF215405D
:1028F00001F0B0F901214DF2164001F0ABF9CA2107
:102900004DF2174001F0A6F902214DF2184001F0F6
:10291000A1F900214DF2194001F09CF902214DF27C
:102920001A4001F097F901214DF21B4000E005E348
:1029300001F090F902214DF21C4001F08BF9342195
:102940004DF21D4001F086F902214DF21E4001F0CA
:1029500081F967214DF21F4001F07CF902214DF20F
:10296000204001F077F984214DF2214001F072F905
:1029700002214DF2224001F06DF9A4214DF22340D5
:1029800001F068F902214DF2244001F063F9B7210A
:102990004DF2254001F05EF902214DF2264001F092
:1029A00059F9CF214DF2274001F054F902214DF29F
:1029B000284001F04FF9DE214DF2294001F04AF99B
:1029C00002214DF22A4001F045F9F2214DF22B404F
:1029D00001F040F902214DF22C4001F03BF9FE21BB
:1029E0004DF22D4001F036F903214DF22E4001F059
:1029F00031F910214DF22F4001F02CF903214DF255
:102A0000304001F027F933214DF2314001F022F935
:102A100003214DF2324001F01DF96D214DF233409A
:102A200001F018F900214FF4554001F013F933215A
:102A30004DF2015001F00EF900214DF2025001F06B
:102A400009F934214DF2035001F004F900214DF24F
:102A5000045001F0FFF83A214DF2055001F0FAF868
:102A600000214DF2065001F0F5F84A214DF20750D1
:102A700001F0F0F800214DF2085001F0EBF85C2174
:102A80004DF2095001F0E6F800214DF20A5001F034
:102A9000E1F881214DF20B5001F0DCF800214DF2FC
:102AA0000C5001F0D7F8A6214DF20D5001F0D2F8EC
:102AB00000214DF20E5001F0CDF8E5214DF20F50FE
:102AC00001F0C8F801214DF2105001F0C3F81321B4
:102AD0004DF2115001F0BEF801214DF2125001F0FB
:102AE000B9F854214DF2135001F0B4F801214DF220
:102AF000145001F0AFF882214DF2155001F0AAF800
:102B000001214DF2165001F0A5F8CA214DF21750DF
:102B100001F0A0F802214DF2185001F09BF80021BD
:102B20004DF2195001F096F802214DF21A5001F0C1
:102B300091F801214DF21B5001F08CF802214DF269
:102B40001C5001F087F834214DF21D5001F082F83D
:102B500002214DF21E5001F07DF867214DF21F5009
:102B600001F078F802214DF2205001F073F8842131
:102B70004DF2215001F06EF802214DF2225001F089
:102B800069F8A4214DF2235001F064F802214DF2BE
:102B9000245001F05FF8B7214DF2255001F05AF8AA
:102BA00002214DF2265001F055F8CF214DF2275069
:102BB00001F050F802214DF2285001F04BF8DE21CF
:102BC0004DF2295001F046F802214DF22A5001F051
:102BD00041F8F2214DF22B5001F03CF802214DF268
:102BE0002C5001F037F8FE214DF22D5001F032F853
:102BF00003214DF22E5001F02DF810214DF22F50EF
:102C000001F028F803214DF2305001F023F8332170
:102C10004DF2315001F01EF803214DF2325001F017
:102C200019F86D214DF2335001F014F800214FF4E2
:102C3000564001F00FF833214DF2016001F00AF81F
:102C400000214DF2026001F005F834214DF20360DD
:102C500001F000F800214DF2046000F0FBFF3A2182
:102C60004DF2056000F0F6FF00214DF2066000F025
:102C7000F1FF4A214DF2076000F0ECFF00214DF218
:102C8000086000F0E7FF5C214DF2096000F0E2FF10
:102C900000214DF20A6000F0DDFF81214DF20B6052
:102CA00000F0D8FF00214DF20C6000F0D3FFA62108
:102CB0004DF20D6000F0CEFF00214DF20E6000F0ED
:102CC000C9FFE5214DF20F6000F0C4FF01214DF274
:102CD000106000F0BFFF13214DF2116000F0BAFF49
:102CE00001214DF2126000F0B5FF54214DF2136046
:102CF00000F0B0FF01214DF2146000F0ABFF822123
:102D00004DF2156000F0A6FF01214DF2166000F0B3
:102D1000A1FFCA214DF2176000F09CFF02214DF285
:102D2000186000F097FF00214DF2196000F092FF4B
:102D300002214DF21A6000F08DFF01214DF21B605F
:102D400000F088FF02214DF21C6000F083FF342167
:102D50004DF21D6000F07EFF02214DF21E6000F07A
:102D600079FF67214DF21F6000F074FF02214DF2E0
:102D7000206000F06FFF84214DF2216000F06AFFB7
:102D800002214DF2226000F065FFA4214DF2236084
:102D900000F060FF02214DF2246000F05BFFB721DC
:102DA0004DF2256000F056FF02214DF2266000F042
:102DB00051FFCF214DF2276000F04CFF02214DF270
:102DC000286000F047FFDE214DF2296000F042FF4D
:102DD00002214DF22A6000F03DFFF2214DF22B60FE
:102DE00000F038FF02214DF22C6000F033FFFE218D
:102DF0004DF22D6000F02EFF03214DF22E6000F009
:102E000029FF10214DF22F6000F024FF03214DF225
:102E1000306000F01FFF33214DF2316000F01AFFE7
:102E200003214DF2326000F015FF6D214DF2336049
:102E300000F010FF55214FF4704000F00BFFAA2165
:102E40004FF2010000F006FF52214FF2020000F0A5
:102E500001FF08214FF2030000F0FCFE00214FF2B9
:102E6000040000F0F7FECC214FF4314000F0F2FEF8
:102E700000214BF2011000F0EDFE05214FF4364029
:102E800000F0E8FE70214FF4374000F0E3FE7021BF
:102E90004BF2017000F0DEFE01214FF4384000F0EB
:102EA000D9FE03214BF6010000F0D4FE03214BF6BE
:102EB000020000F0CFFE03214BF6030000F0CAFE33
:102EC00002214FF43C4000F0C5FE00214BF60140CA
:102ED00000F0C0FE00214BF6024000F0BBFED02106
:102EE0004FF4494000F0B6FE02214CF6011000F00C
:102EF000B1FE50214CF6021000F0ACFE50214CF611
:102F0000031000F0A7FE50214CF6041000F0A2FEC2
:102F100000214FF4545000F09DFE55214FF46850AD
:102F200000F098FE4FF4885000F07AFE782001F00F
:102F3000CDFA4FF4245000F073FE76E2FE4880880C
:102F400041F663118842F8D1E22000F069FE4FF4A7
:102F50008070FA490861400048611D20F849086006
:102F60008020F649486108618000086140100861CE
:102F7000400048610220F24908608020EF49486122
:102F80000861800008614010086140004861042029
:102F9000EB4908608020E9494861086180000861C8
:102FA000642001F093FAE02000F03AFE4FF48070C4
:102FB000E2490861400048610120E1490860802041
:102FC000DE4948610861800008610A2001F05CFA6E
:102FD000E02000F025FE4FF48070D84908614000E1
:102FE00048610320D64908608020D44948610861BF
:102FF000800008610C2001F047FA012000F010FE6B
:103000000A2001F041FAE62000F00AFE4FF4807039
:10301000CA490861400048612F20C94908608020E2
:10302000C64948610861800008614010086140009D
:103030004861FF20C24908608020C049486108619A
:10304000800008614010086140004861FF20BC49D1
:1030500008608020B9494861086180000861B0209B
:1030600000F0DEFD4FF48070B44908614000486113
:103070002020B34908608020B04948610861800081
:10308000086140100861400048610020AC490860B8
:103090008020AA49486108618000086140100861E9
:1030A000400048610320A64908608020A349486188
:1030B000086180000861401008614000486140F2EA
:1030C0001F309F49086080209C494861086180004A
:1030D000086140100861400048610120984908607B
:1030E00080209649486108618000086140100861AD
:1030F0004000486140F2DF109149086080208F490C
:103100004861086180000861401008614000486122
:1031100000208B4908608020884948610861800050
:103120000861B42000F07CFD4FF480708349086191
:103130004000486104208249086080207F4948613E
:10314000086180000861401008614000486140F259
:103150001F407B49086080207849486108618000F1
:10316000086140100861400048610020744908600F
:103170008020724948610861800008614010086140
:10318000400048612E206E49086080206B494861EC
:10319000086180000861401008614000486100201B
:1031A00067490860802065494861086180000861BE
:1031B000401008614000486100206149086080209B
:1031C0005E49486108618000086140100861400064
:1031D000486100205A4908608020584948610861C8
:1031E0008000086140100861400048610020544997
:1031F0000860802051494861086180000861B6205C
:1032000000F00EFD4FF480704C49086140004861A9
:1032100002204B49086080204849486108618000CD
:10322000086140100861400048614FF40370444950
:1032300008608020414948610861800008614010B1
:1032400008614000486100203D49086080203B49FA
:1032500048610861800008614010086140004861D1
:103260001720374908608020344948610861800090
:10327000086140100861400048611520304908602D
:1032800080202E4948610861800008614010086173
:103290004000486100202A49086080202749486191
:1032A000086180000861401008614000486100200A
:1032B0002349086080202149486108618000086135
:1032C000F02000F0ADFC4FF480701C490861400014
:1032D000486103201A490860802018494861086144
:1032E00080000861292000F09BFCD02000F098FCB1
:1032F0004FF4807011490861400048610020104976
:10330000086080200D494861086180000861BE2086
:1033100000F086FC4FF48070084908614000486165
:103320000520074908608020044948610861800041
:1033300008614010086105E0840100200010014090
:103340000C0C014040004861FE203D49086080208F
:103350003C494861086180000861401008614000F4
:10336000486101203649086080203649486108617B
:103370008000086140100861400048610020304929
:10338000086080202F494861086180000861401072
:1033900008614000486100202949086080202949CF
:1033A0004861086180000861401008614000486180
:1033B000002023490860802022494861086180007C
:1033C0000861B82000F02CFC4FF480701D490861A2
:1033D0004000486103201A4908608020194948616B
:1033E00008618000086140100861400048610120C8
:1033F0001349086080201349486108618000086112
:10340000BA2000F00DFC4FF480700E4908614000B6
:10341000486101200A49086080200A494861086122
:1034200080000861642000F041F80020FDF7C6FA32
:103430000120054908604FF6FF70FDF787FA08BDC7
:103440000C0C014000100140A801224200B54FF0D1
:10345000883014490860091D0860002011490C31AA
:1034600008608815104908614000486140204861A3
:10347000022001F0FEF80B480830006883B24020BB
:1034800009490861C00008614FF033300549086000
:10349000091D08604FF6FF7002490C31086018469C
:1034A00000BD0000000C0140001001402DE9F0417A
:1034B0000446BE2000F0B4FB4FF480702D49086133
:1034C0004000486105202C49086080202949486156
:1034D0000861800008614010086140004861204692
:1034E00003F043FA05464FF06632244B03F050FADE
:1034F000074603F00DFA2049086080201D49486105
:1035000008618000086140100861400048610120A6
:1035100019490860802017494861086180000861E6
:103520004010086140004861FF2013490860802076
:10353000104948610861800008614010086140003E
:10354000486100200C49086080200A4948610861F0
:103550008000086140100861400048610020064971
:103560000860802003494861086180000861BDE867
:10357000F0810000001001400C0C01406666044020
:10358000F0B5054600240027E2488079012805D1DE
:10359000E048808841F66311884208D1DD4880798F
:1035A000F0B9DC48808841F66311884218D1082DB3
:1035B00015D2DFE805F00406080A0C0E10120625E5
:1035C0000DE007250BE0042509E0052507E00125AE
:1035D00005E0002503E0032501E0022500BF00BF50
:1035E000082D1CD2DFE805F00406090C0F1215188F
:1035F00000BF14E044F0800411E044F040040EE009
:1036000044F0C0040BE044F0200408E044F06004FF
:1036100005E044F0A00402E044F0E00400BF00BF75
:10362000BC48808845F21051884202D14FF4585767
:1036300000E03627B748808849F24131884205D0FA
:10364000B448808847F28971884201D144F0080467
:103650002146384600F0FEFAAE48808841F66311F4
:1036600088421DD004F0200068B1AA480088A9490A
:103670004988884214DAA74806884088A549088006
:10368000084646800CE0A3480088A2494988884241
:1036900006DDA048068840889E4908800846468086
:1036A0009C48808845F2105188427DD199494889CB
:1036B00000F0B6FA4FF48070974908614000486105
:1036C0000020964908608020934948610861800085
:1036D000086190494989491C88B200F0A1FA4FF469
:1036E00080708D4908614000486100208B49086066
:1036F00080208949486108618000086185494989BD
:10370000891C88B200F08CFA4FF4807082490861FD
:10371000400048617F480088401E00127F490860D1
:1037200080207D49486108618000086179494989A4
:10373000C91C88B200F074FA4FF4807076490861B1
:103740004000486173480078401EC0B27349086069
:103750008020714948610861800008616D4988894D
:1037600000F05EFA4FF480706B49086140004861D8
:1037700000206A490860802067494861086180002C
:10378000086164498989491C88B200F049FA4FF4FC
:103790008070614908614000486100205F4908600D
:1037A00080205D49486100E033E0086180000861E5
:1037B00058498989891C88B200F032FA4FF4807028
:1037C000554908614000486152484088401E001237
:1037D00052490860802050494861086180000861B2
:1037E0004C498989C91C88B200F01AFA4FF48070DC
:1037F000494908614000486146488078401EC0B28F
:103800004649086080204449486108618000086199
:103810007FE04049488900F003FA4FF480703E4948
:1038200008614000486100203C49086080203A4916
:1038300048610861800008614010086140004861EB
:1038400000203649086080203349486108618000C3
:10385000086140100861400048612E480088401E01
:1038600000122E49086080202B49486108618000C1
:103870000861401008614000486126480078401EF9
:10388000C0B2264908608020234948610861800051
:1038900008612049888900F0C3F94FF480701E49FF
:1038A00008614000486100201C49086080201A49D6
:1038B000486108618000086140100861400048616B
:1038C0000020164908608020134948610861800083
:1038D000086140100861400048610E484088401E61
:1038E00000120E49086080200B4948610861800081
:1038F0000861401008614000486106488078401E19
:10390000C0B2064908608020034948610861800010
:103910000861F0BD84010020001001400C0C014042
:1039200010B503460C46B248808841F663118842C0
:103930007ED1AF48807900283FD1AD480088401E35
:10394000C01A83B2AA49488900F06AF94FF480701E
:10395000A8490861400048610020A749086080200C
:10396000A449486108618000086140100861400076
:1039700048610020A049086080209E494861086194
:1039800080000861401008614000486118129A499F
:1039900008608020974948610861800008614010F4
:1039A000086140004861D8B293490860802091497D
:1039B000486108618000086141E08D49488900F054
:1039C0002FF94FF480708B4908614000486118124C
:1039D0008949086080208749486108618000086142
:1039E0004010086140004861D8B2834908608020D7
:1039F000804948610861800008614010086140000A
:103A000048617B480088401E00127B490860802086
:103A100078494861086180000861401008614000F1
:103A2000486173480078401EC0B27349086000E0E6
:103A300046E080206F4948610861800008616C4958
:103A4000888900F0EDF84FF480706A490861400001
:103A50004861201268490860802066494861086111
:103A6000800008614010086140004861E0B262498E
:103A7000086080205F49486108618000086140104B
:103A80000861400048615A484088401E00125A4967
:103A90000860802057494861086180000861401033
:103AA00008614000486152488078401EC0B25249C7
:103AB000086080204F49486108618000086196E0F5
:103AC0004B48808845F21051884250D14849488976
:103AD00000F0A6F84FF48070464908614000486144
:103AE00018124549086080204249486108618000F9
:103AF00008613F494989491C88B200F091F84FF4A8
:103B000080703C49086140004861D8B23A49086079
:103B100080203849486108618000086134498889FB
:103B200000F07EF84FF4807032490861400048612F
:103B300020123149086080202E49486108618000C8
:103B400008612B498989491C88B200F069F84FF453
:103B500080702849086140004861E0B22649086049
:103B60008020244948610861800008613FE02049C5
:103B7000488900F055F84FF480701E4908614000F4
:103B8000486118121C49086080201A494861086180
:103B9000800008614010086140004861D8B21649B1
:103BA000086080201349486108618000086110495D
:103BB000888900F035F84FF480700E4908614000A4
:103BC000486120120C49086080200A494861086158
:103BD000800008614010086140004861E0B2064979
:103BE000086080200349486108618000086110BDB9
:103BF00084010020001001400C0C01404FF4807142
:103C0000054A1161490051610449086080215161F0
:103C10001161890011617047001001400C0C0140D6
:103C20004FF48071054A51614900516104490860AF
:103C300080215161116189001161704700100140BC
:103C40000C0C014000B502490889FFF7E9FF00BDEF
:103C50008401002010B504460B462046FFF7E0FF24
:103C60004FF48070054908614000486104480360D2
:103C70008020486108618000086110BD001001408B
:103C80000C0C014008B50121242000F079F84FF414
:103C90008070ADF8000010208DF8030003208DF82F
:103CA000020069460948FCF77AFD4FF48071074825
:103CB000FCF748FE0420ADF8000069460448FCF714
:103CC0006EFD04210248FCF73DFE08BD00080140DE
:103CD0000014014000BFFEE77047000070B50021EE
:103CE00000230F22C47804B3154C246804F4E06464
:103CF000C4F5E064210AC1F10403CA40447804FA1F
:103D000003F184781440214309010E4C0678A15533
:103D1000047804F01F050124AC4005786D11AD0056
:103D200005F1E025C5F8004109E0047804F01F051D
:103D30000124AC40044D0678761145F8264070BD4C
:103D40000CED00E000E400E080E100E00249014306
:103D5000024A1160704700000000FA050CED00E017
:103D600029B1064AD2690243044BDA6104E0034AEE
:103D7000D2698243014BDA617047000000100240B3
:103D800029B1064A92690243044B9A6104E0034A4E
:103D900092698243014B9A61704700000010024013
:103DA00030B500210022002400232D4D6D6805F060
:103DB0000C0121B1042905D0082923D105E0294DA2
:103DC000056022E0274D05601FE0254D6D6805F474
:103DD0007012234D6D6805F48034022505EB924284
:103DE0001CB9214D554305600BE01D4D6D6805F470
:103DF00000351DB11C4D5543056002E0194D55437A
:103E0000056002E0174D056000BF00BF144D6D68EE
:103E100005F0F0010909154D6B5C0568DD40456052
:103E20000F4D6D6805F4E061090A104D6B5C456843
:103E3000DD4085600A4D6D6805F46051C90A0B4D7F
:103E40006B5C4568DD40C560054D6D6805F440411B
:103E5000890B074D6B5CC568B5FBF3F5056130BD9B
:103E60000010024000127A0000093D0032000020DC
:103E70004200002010B500F001F810BD0CB5002084
:103E8000019000903348006840F480303149086068
:103E900000BF3048006800F4003000900198401CDA
:103EA0000190009818B90198B0F5A06FF1D1294898
:103EB000006800F4003010B10120009001E0002003
:103EC00000900098012843D12348006840F010007A
:103ED000214908600846006820F003000860084691
:103EE000006840F0020008601A48406819494860BC
:103EF0000846406848600846406840F48060486072
:103F00000846406820F47C1048600846406840F449
:103F1000E81048600846006840F08070086000BF04
:103F20000C48006800F000700028F9D0094840688B
:103F300020F00300074948600846406840F002004E
:103F4000486000BF0348406800F00C000828F9D121
:103F50000CBD00000010024000200240042808D1DF
:103F60004FF0E021096941F004014FF0E0221161B6
:103F700007E04FF0E021096921F004014FF0E02251
:103F80001161704710B502F01BFA012801D001F051
:103F90009DFE10BD10B51348006840F001001149A6
:103FA000086008464068104908400E4948600846C5
:103FB00000680E4908400B4908600846006820F474
:103FC000802008600846406820F4FE0048604FF4F6
:103FD0001F008860FFF74EFF4FF000600449086043
:103FE00010BD0000001002400000FFF8FFFFF6FEC9
:103FF00008ED00E010B50121064800F0A2F8012804
:1040000002D105A0FCF75AF90121024800F08AF814
:1040100010BD00000004004054494D3320CAE4B3F1
:10402000F62E2E2E2E2E2E2E0D0A00007FB50546C2
:104030000C4601210220FFF793FEADF80850ADF8C1
:1040400004400020ADF80A00ADF8060001A90E48B2
:1040500000F092F8012211460B4800F083F81D2071
:104060008DF8000004208DF8010000208DF802007A
:1040700001208DF803006846FFF730FE0121024859
:1040800000F053F87FBD00000004004010B501218E
:10409000064800F056F8012802D105A0FCF70EF9F9
:1040A0000121024800F03EF810BD0000000C004065
:1040B00054494D3520CAE4B3F62E2E2E2E2E2E2E28
:1040C0000D0A00007FB505460C4601210820FFF7C8
:1040D00047FEADF80850ADF804400020ADF80A00E6
:1040E000ADF8060001A90E4800F046F8012211467D
:1040F0000B4800F037F832208DF8000005208DF8CD
:10410000010000208DF8020001208DF803006846B0
:10411000FFF7E4FD0121024800F007F87FBD000031
:10412000000C0040CA430282704721B1028842F06D
:104130000102028004E002884FF6FE731A400280FA
:10414000704730B50246002000230024158A05EA96
:104150000103958905EA010413B10CB1012000E0C7
:10416000002030BD1AB183890B43838102E083892B
:104170008B43838170470000002202881D4B9842C8
:104180000ED01D4B98420BD0B0F1804F08D01B4B86
:10419000984205D01A4B984202D01A4B984204D14B
:1041A0004FF68F731A404B881A43174B984207D02B
:1041B000164B984204D04FF6FF431A40CB881A435F
:1041C00002808B8883850B8803850A4B98420BD02D
:1041D000094B984208D00E4B984205D00D4B98429F
:1041E00002D00D4B984201D10B7A038601238382C2
:1041F00070470000002C01400034014000040040E2
:1042000000080040000C0040001000400014004076
:1042100000400140004401400048014010B540F218
:1042200025511D4800F04AF810B31B4800F002F970
:10423000C4B21A48008800F40040C8B91748008882
:1042400000F4804060B10A2C03D00020134908809C
:1042500020E01248008840F400401049088019E02E
:104260000D2C06D10D48008840F480400B49088091
:1042700010E00A480088C0F30D0009490C540748B3
:104280000088401C0549088008460088C72801DDD1
:104290000020088010BD00000038014030000020E0
:1042A000BC00002021B1828942F40052828104E0E6
:1042B00082894DF6FF731A408281704770B50246BD
:1042C000002400230025002040F66A16B14200D1E8
:1042D00000BFC1F3421501F01F03012606FA03F3E4
:1042E000012D02D19689334006E0022D02D1168AB3
:1042F000334001E0968A33400C12012606FA04F49A
:104300001688344013B10CB1012000E0002070BDCC
:10431000F0B50346002400260025002040F66A1769
:10432000B94200D100BF1846C1F3421401F01F0684
:10433000012707FA06F5012C01D10C3004E0022C0C
:1043400001D1103000E014301AB107682F43076024
:1043500002E00768AF430760F0BD00002DE9F047B9
:1043600086B005460E460024A24600BFA14600279F
:10437000B08900B100BF2F462C8A4CF6FF70044074
:10438000F08804432C82AC894EF6F3100440B088C8
:1043900031890843718908430443AC81AC8A4FF6E4
:1043A000FF400440B0890443AC8201A8FFF7F8FC49
:1043B0001F48874202D1DDF810A001E0DDF80CA013
:1043C000A88900F4004040B10AEBCA0000EB0A10D3
:1043D00031684900B0FBF1F807E00AEBCA0000EBD6
:1043E0000A1031688900B0FBF1F86420B8FBF0F0E6
:1043F00004012009642101FB1089A88900F4004010
:1044000040B1322000EBC900B0FBF1F000F0070032
:10441000044308E0322000EB09106421B0FBF1F006
:1044200000F00F0004432C8106B0BDE8F0870000C7
:104430000038014001468888C0F30800704700BF7B
:10444000FEE700BF7047000010B50420FFF786FDAF
:10445000094800680949B0FBF1F0094908700846AD
:10446000007800EB4001C1EBC0104FF6FF7101EA8C
:10447000C0000449088010BD0000002000127A002E
:10448000280000202A00002070B5044601F098FFA3
:10449000012811D00C480088844206DB0A480088B5
:1044A00094FBF0F5284601F065F90748008894FB75
:1044B000F0F100FB114084B24FF47A7104FB01F07B
:1044C00000F004F870BD00002A0000200146114AE7
:1044D00012784A434FF0E0235A6100229A611A464B
:1044E000126942F001021A6100BF4FF0E022106928
:1044F00000F001021AB100F48032002AF5D04FF02A
:10450000E022126922F001024FF0E0231A6100223A
:104510009A6170472800002030B50446002504E069
:104520004FF47A70FFF7D2FF6D1CA542F8D330BD6F
:104530001CB54FF44070FFF709FCFFF785FF4FF4FF
:10454000E13000F007FFFFF79DFB002201210EA0E4
:1045500000F078F841F61F4142F20F70FFF766FD58
:1045600041F61F4142F20F70FFF7ACFD08480121F0
:1045700000230A02CDE9001006A1094801F0F0FE6F
:1045800001F094FA1CBD0000746573740000000013
:104590001400002073746172745F7461736B0000A7
:1045A0000D53000800BF054A128802F04002002A9D
:1045B000F9D0C2B2014B1B1D1A8070470038014070
:1045C00024E013480068401C114908600846006850
:1045D000052817D10FA0FBF771FE00BF502080F314
:1045E0001188BFF34F8FBFF36F8F00BF4CF2503075
:1045F000FFF792FF0DA0FBF761FE002080F311880A
:1046000000BF00BF4FF47A7001F0B4F8D9E70000A2
:1046100024000020B9D8B1D5D6D0B6CF2E2E2E2E5C
:104620002E2E2E2E2E2E2E2E2E0D0A00B4F2BFAAC6
:10463000D6D0B6CF2E2E2E2E2E2E2E2E2E2E2E2E27
:104640002E0D0A0070B504460D461646FCF74EFACC
:10465000FCF7A2F901A0FBF731FE70BD6A75737417
:10466000207465737400000010B5FFF761FF00202F
:1046700010BD00BF011EA0F10102D0B2FAD17047F7
:104680002DE9F04105460E461C4807681C480068A5
:10469000001D00F0AFFE50B91948006890F82C10CA
:1046A0000120884017490968814316480160681C49
:1046B00038B936B112480168091D134800F0D9FE17
:1046C0001AE07C190E4800684460BC4207D20C48CE
:1046D0000168091D0D48006800F0B1FE0CE00848B3
:1046E0000168091D0A48006800F0A9FE0948006831
:1046F000844201D207480460BDE8F0815C000020DC
:104700004800002060000020A40400205000002089
:104710004C0000207800002010B5044600F0B6FEE2
:1047200024480068401C234908602348006840B9B9
:10473000214804600846006801280DD100F0EEF918
:104740000AE01E48006838B91B480068C06AE16A80
:10475000884201D81848046019480068401C18496C
:10476000086008460068606494F82C1001208840B6
:1047700014490968084313490860E16A01EB8101A3
:10478000114A02EB8100211D00F073FE00F0C2FE11
:104790000A48006868B108480068C06AE16A88424F
:1047A00007D24FF0805009490860BFF34F8FBFF325
:1047B0006F8F10BD580000204800002064000020CA
:1047C0007400002060000020D401002004ED00E00F
:1047D00010B500F05BFE10480068D0B90F4800F03B
:1047E0001EFE0F4800F01BFE0C480E4908600C48E6
:1047F0000D49086000221021052001F081FA0649C8
:1048000008600846006820B108A10348006800F06D
:1048100075FF00F07FFE10BD8C000020B804002062
:10482000CC0400208400002088000020546D7251C8
:104830000000000070B523E001F08EF91348006815
:1048400008B9012000E00020054601F045FFBDB990
:1048500000F01CFE0D48C068C468201D00F0CAFDB1
:104860000B480068401E0A4908600A480068401E5C
:104870000849086000F04EFE204600F060F800BFD6
:10488000044800680028D7D170BD000090040020C3
:10489000580000205400002070B504460D46206CDE
:1048A00070B1216CE0680844E0606168E0688842AB
:1048B00001D32068E0602846226CE168FBF7D0FD58
:1048C00070BD2DE9F04104460F4615464FF0000833
:1048D000A66B206C40B9206860BB606801F036FEB2
:1048E00080460020606025E07DB93946226CA068D2
:1048F000FBF7B6FD216CA0680844A060D4E9011064
:10490000884217D32068A06014E03946226CE06822
:10491000FBF7A6FD216CE068401AE0602168E068C2
:10492000884203D2216C6068401AE060022D01D1F8
:1049300006B1761E701CA0634046BDE8F08110B53C
:104940000446206B00F01EFE204600F01BFE10BD4A
:104950000146084A126812680AB9012200E00022E2
:104960000A600A6822B9034A1268D268106800E037
:10497000002070478400002030B54FF4A043174852
:1049800000F007042CB1C01D20F00700134C041BDD
:104990001B1B0246124C22600024114D6C60D01883
:1049A000083820F007000F4C206000240D4D2D68C2
:1049B0006C600C4D2D682C601146441A4C60094CFB
:1049C00024680C60084D4C682C60084D4C682C60C5
:1049D0004FF00044064D2C6030BD0000E004002084
:1049E00098000020A0000020A8000020A4000020C3
:1049F000AC00002000BFFFF71DFF0648006801283B
:104A0000F9D94FF0805004490860BFF34F8FBFF3CE
:104A10006F8FF0E7D401002004ED00E02DE9F041B4
:104A200006460D4617469846069C0DB9246000E0E0
:104A30002760E66325640121204601F07FFA84F8AF
:104A400050800020A064BDE8F08100002DE9F05FF7
:104A500082460F4690469B460A9E0C9C4FEA880170
:104A6000A522206BFBF741FDA8F10100216B01EBB2
:104A7000800929F0070909F0070008B9012000E0C2
:104A8000002028B940F22B321BA120A0FBF716FC16
:104A9000002507E0795D04F134004155785D00B9E7
:104AA00002E06D1C102DF5D300BF002143200155FD
:104AB000202E00D31F26E662E66400202065201D1C
:104AC00000F0BAFC04F1180000F0B6FC2461C6F155
:104AD0002000A06164620020606584F858005A4696
:104AE0005146484600F000FC20600B9808B10B9836
:104AF0000460BDE8F09F0000555345525C536F754C
:104B00007263655C7461736B732E63004572726FC0
:104B1000723A25732C25640D0A00000010B500249C
:104B200007E004EB84010F4A02EB810000F077FC00
:104B3000641C202CF5D30C4800F071FC0B4800F0ED
:104B40006EFC0B4800F06BFC0A4800F068FC0A4859
:104B500000F065FC044809490860044808490860F9
:104B600010BD0000D401002054040020680400207F
:104B70007C04002090040020A40400204C000020AD
:104B80005000002010B50146164800E00068036898
:104B90008B42FBD30246436813448B4204D14368E3
:104BA0004C682344436001460A464B68134404683A
:104BB000A34211D10C4C03682468A34208D04B686F
:104BC0000468646823444B6003681B680B6005E05D
:104BD000054B1B680B6001E003680B60884200D046
:104BE000016010BD98000020A00000202DE9F041D8
:104BF00004460D4616461F464FF0000865602461C6
:104C0000B5420CD8F01BA169884202D34FF00108CD
:104C100011E0211D0948006800F011FC0BE0BE42C4
:104C200004D2BD4202D34FF0010804E0211D044824
:104C3000006800F004FC4046BDE8F08188000020D8
:104C40008400002070B5054600F020FCA86B08B970
:104C5000012400E0002400F05DFC204670BD70B52A
:104C6000054600F013FCA86BE96B884201D10124D2
:104C700000E0002400F04EFC204670BD2DE9F34119
:104C80000D460098846C00272CB940F6CE121AA16C
:104C90001EA0FBF713FBA06BE16B884201D2012041
:104CA00000E0002028B940F6CF1213A117A0FBF7AF
:104CB00005FBA06BE16B88421BD294F945602A4644
:104CC00069462046FFF7FDFD0746701C60B9606A23
:104CD00008B9012000E0002050B904F1240001F0DF
:104CE000A1FC28B1012703E0701C40B284F8450004
:104CF00000BF3846BDE8FC81555345525C536F7583
:104D00007263655C71756575652E63004572726FBF
:104D1000723A25732C25640D0A000000F8B505468B
:104D20000F4613480068C068C468201D00F062FB8D
:104D3000E069012818D1A06941192B463A4620465E
:104D4000FFF754FF80B1002003462A460146009039
:104D5000204601F08BFD06462EB94FF4027205A1E4
:104D60000AA0FBF7ABFA00BF2046616A8847F8BD8E
:104D700084000020555345525C536F757263655C27
:104D800074696D6572732E63000000004572726F66
:104D9000723A25732C25640D0A000000F0B587B027
:104DA00070E0039800280CDA04AE2EB940F2E72236
:104DB0003AA140A0FBF782FAD6E90020B1689047FB
:104DC00000BF039800285DDB059C606908B90120DD
:104DD00000E0002010B9201D00F00CFB02A800F03C
:104DE000C7F8054603980A284AD2DFE800F009050B
:104DF000072C2E4506082D2F00BF00BF00BF00BFA7
:104E00000498A269811803462A462046FFF7EEFE61
:104E1000C0B12046616A8847E069012812D10020AC
:104E200000900498A169421800231946204601F019
:104E30001DFD07462FB940F2213218A11DA0FBF736
:104E40003DFA00BF1DE000BF1BE000BF0498A06159
:104E5000A06908B1012000E0002028B94FF44E728B
:104E60000EA114A0FBF72AFAA06941192B462A4685
:104E70002046FFF7BBFE04E0204600F083FB00E085
:104E800000BF00BF00231A4603A90E48006800F0C7
:104E900071FF002885D107B0F0BD00005553455281
:104EA0005C536F757263655C74696D6572732E63B4
:104EB000000000004572726F723A25732C25640D54
:104EC0000A0000008C000020F8B505460C4600F0F2
:104ED00043FE684600F04CF80646009820BB44B9F3
:104EE000B54206D801F0F8FB31462846FFF716FF19
:104EF0001CE03CB10E480068006808B9012000E0E1
:104F000000200446A91B22460A48006800F00CFC59
:104F100001F0E2FB50B94FF0805007490860BFF341
:104F20004F8FBFF36F8F01E001F0D6FBF8BD00009B
:104F3000880000208C00002004ED00E00A49096888
:104F4000096809B9012100E0002121B14FF0FF31CA
:104F5000064A116006E004490968C968C868034A3E
:104F600041681160704700004C000020780000206C
:104F700070B5044601F034FA0546074800688542DA
:104F800004D200F00BF80120206001E00020206036
:104F900001480560284670BD940000202DE9F843C3
:104FA0002DE021480068C06805681F480068C06897
:104FB000C468201D00F01EFA2046616A8847E06937
:104FC00001281CD1A0694619AE4207D96660246148
:104FD000211D1548006800F032FA10E00020034659
:104FE0002A4601460090204601F040FC07462FB9B2
:104FF00040F292320DA113A0FBF760F900BF0A48FE
:105000000068006808B9012000E000200028C8D02E
:105010000548D0F800800F480068034908600D4833
:10502000C0F80080BDE8F883840000205553455245
:105030005C536F757263655C74696D6572732E6322
:10504000000000004572726F723A25732C25640DC2
:105050000A000000880000200B480068401C08B9C6
:10506000012000E0002020B9F42208A112A0FBF7E3
:1050700025F900BF502080F31188BFF34F8FBFF395
:105080006F8F00BF00BFFEE7B000002055534552B0
:105090005C536F757263655C706F727461626C658E
:1050A0005C525644535C41524D5F434D335C706FCC
:1050B00072742E63000000004572726F723A25739D
:1050C0002C25640D0A00000008B500BF6846FFF7F4
:1050D0003FFC044620460099FFF7F6FEFFF75EFE10
:1050E000F4E770B5044600F0D1F994F945501AE0A0
:1050F000A06C38B100212046FFF7C0FD88B100F058
:10510000F9FB0EE0606A08B9012000E0002038B920
:1051100004F1240001F086FA18B100F0EBFB00E086
:1051200003E0681E45B2002DE2DC00BFFF2084F8DA
:10513000450000F0EFF900F0A9F994F9445010E0AF
:10514000206908B9012000E0002048B904F11000EE
:1051500001F068FA08B100F0CDFB681E45B200E02E
:1051600001E0002DECDC00BFFF2084F8440000F0DB
:10517000D1F970BD2DE9F04104464FF0000800F070
:10518000EBFC3E48006808B9FFF7F6FB3C480068B6
:10519000204000285FD1A4B1083404F0070080B19A
:1051A00004F00700C0F10800044404F0070008B947
:1051B000012000E0002020B9BF2232A13BA0FBF774
:1051C0007DF8002C47D03D480068844243D83C4ECF
:1051D0003046056801E02E462D686868A04202D27C
:1051E00028680028F7D125480068854233D0306808
:1051F00000F10808286830606868001B102813D97F
:105200002F1907F0070008B9012000E0002020B99D
:10521000EC221CA125A0FBF751F86868001B786000
:105220006C603846FFF7AEFC244968680968081AC4
:10523000224908600846006822490968884203D26A
:105240001E4800681F4908600D49686809680843DE
:1052500068600020286001F03FFA08F0070008B9F4
:10526000012000E0002028B94FF4967205A10FA09C
:10527000FBF724F84046BDE8F0810000A0000020C4
:10528000AC000020555345525C536F757263655CEA
:10529000706F727461626C655C4D656D4D616E67B7
:1052A0005C686561705F342E630000004572726F48
:1052B000723A25732C25640D0A000000A40000201A
:1052C00098000020A80000200648006830B1054979
:1052D000096801F15000096D491C0160014800682E
:1052E0007047000048000020001F4FF080730360EB
:1052F000001F21F001030360001F034B03601438FB
:105300000260203870470000595000081CB5044660
:1053100000F0BCF8084802210023CA01CDE90010C2
:1053200006A10A4801F01CF80948006800F05CFA80
:1053300000F0F0F81CBD000018000020696E7465D4
:1053400072727570745F7461736B0000C145000800
:105350001400002010B586B00446012144F2040078
:10536000FEF70EFD4FF40070ADF8140003208DF829
:10537000160018208DF8170005A91C48FBF70FFA36
:105380004FF48060ADF8140004208DF8170005A9D3
:105390001648FBF704FA25208DF8000003208DF84D
:1053A00001008DF8020001208DF803006846FEF729
:1053B00095FC01940020ADF80800ADF80A00ADF8A6
:1053C0000C00ADF810000C20ADF80E0001A9084843
:1053D000FEF7C4FF012240F225510548FEF798FF71
:1053E00001210348FEF75EFF06B010BD0008014032
:1053F0000038014001460A69D1E901309860D1E9DD
:10540000010358605068884201D1886850600020CC
:1054100008611068401E106010687047704700F106
:10542000080141604FF0FF31816000F10801C16067
:10543000016100210160704700210161704710B5D2
:1054400002460B685C1C0CB9106907E002F1080009
:1054500000E04068446824689C42FAD944684C6083
:105460004C68A160886041600A611468641C146023
:1054700010BD42684A6093688B6093685960916080
:10548000086103685B1C03607047000010B500BF33
:10549000502080F31188BFF34F8FBFF36F8F00BF91
:1054A0000B480068401C0A4908600846006801284B
:1054B0000DD108480068C0B208B9012000E0002002
:1054C00028B94FF4BD7204A10EA0FAF7F7FE10BD83
:1054D000B000002004ED00E0555345525C536F7559
:1054E0007263655C706F727461626C655C52564485
:1054F000535C41524D5F434D335C706F72742E6349
:10550000000000004572726F723A25732C25640DFD
:105510000A00000010B50B48006828B940F281125B
:1055200009A114A0FAF7CAFE06480068401E054902
:1055300008600846006820B9002080F3118800BF89
:1055400000BF10BDB0000020555345525C536F752D
:105550007263655C706F727461626C655C52564414
:10556000535C41524D5F434D335C706F72742E63D8
:10557000000000004572726F723A25732C25640D8D
:105580000A00000070B506463546002E35D0083DAD
:105590002C461A4960680968084008B1012000E0FB
:1055A000002028B94FF4A07215A11FA0FAF786FEBB
:1055B000206808B9012000E0002028B940F241121B
:1055C0000FA119A0FAF77AFE0C4960680968084033
:1055D00098B1206888B909496068096888436060A3
:1055E00000F0BAFA14496068096808441249086072
:1055F0002046FFF7C7FA01F06FF870BDAC0000203D
:10560000555345525C536F757263655C706F72746D
:1056100061626C655C4D656D4D616E675C6865616E
:10562000705F342E630000004572726F723A25730A
:105630002C25640D0A000000A40000200648006824
:105640004FF47A71B0FBF1F0401E4FF0E021486159
:1056500007200861704700000000002070B5FAF7CD
:1056600007FE0546102D11D305F1E02090F8F04318
:1056700010480078844201DB012000E0002028B9B6
:105680004FF42A720CA117A0FAF718FE1948006807
:1056900000F4E06018490968884201D8012000E060
:1056A000002028B94FF42E7203A10EA0FAF706FECF
:1056B00070BD0000B4000020555345525C536F7517
:1056C0007263655C706F727461626C655C525644A3
:1056D000535C41524D5F434D335C706F72742E6367
:1056E000000000004572726F723A25732C25640D1C
:1056F0000A0000000CED00E0B80000200246002087
:105700000BE0084B53F8303033B9064B43F83010F8
:1057100003EBC0035A6002E0401C0828F1D300BF2D
:1057200070470000940100202DE9F04105460E4627
:1057300017462C46FFF7AAFE94F94400401C10B906
:10574000002084F8440094F94500401C10B9002062
:1057500084F84500FFF7DEFEA06B28B93A463146D3
:1057600004F1240000F0F6F82046FFF7BAFCBDE88B
:10577000F081000070B504460025ACB10F48006808
:1057800008B9012000E0002028B940F2CF420CA166
:1057900010A0FAF793FD00F0DFF900212046FEF794
:1057A0006FFF00F099FF05463DB94FF080500D495D
:1057B0000860BFF34F8FBFF36F8F70BD8000002074
:1057C000555345525C536F757263655C7461736BBE
:1057D000732E63004572726F723A25732C25640D27
:1057E0000A00000004ED00E070B50546FFF74EFE2C
:1057F00015B92D48006800E028460446201DFFF733
:10580000F9FD78B9E06A00EB8000284951F82000E2
:1058100040B994F82C10012088402549096881433B
:1058200023480160A06A18B104F11800FFF7E2FDF7
:1058300020480068401C1F4908601B4800688442DB
:1058400009D1211D1C48FFF714FE1C480068401CAC
:105850001A49086009E01A480068401E18490860A3
:105860002046FFF76CF8FFF769FBFFF753FE15487A
:105870000068C0B10C480068844214D11248006826
:1058800008B9012000E0002028B940F265420FA1CC
:1058900013A0FAF713FD4FF0805015490860BFF3CD
:1058A0004F8FBFF36F8F70BD48000020D4010020E0
:1058B00060000020740000209004002054000020AC
:1058C00058000020640000208000002055534552FD
:1058D0005C536F757263655C7461736B732E6300E8
:1058E0004572726F723A25732C25640D0A00000010
:1058F00004ED00E001200149086070476C000020C1
:1059000070B504460D462CB940F6063207A10CA02E
:10591000FAF7D4FC0E48016818312046FFF78FFDD6
:1059200001212846FEF7ACFE70BD000055534552DC
:105930005C536F757263655C7461736B732E630087
:105940004572726F723A25732C25640D0A000000AF
:105950004800002070B505460E4614462DB940F6A5
:10596000313209A10DA0FAF7A9FC104801681831DD
:105970002846FFF77EFD0CB14FF0FF36214630463A
:10598000FEF77EFE70BD0000555345525C536F75A7
:105990007263655C7461736B732E63004572726F22
:1059A000723A25732C25640D0A000000480000207F
:1059B00070B505462C46002D4BD02649E06A096893
:1059C000C96A884245D2A06900F0004028B9214840
:1059D0000068C06AC0F12000A061E16A01EB8101AA
:1059E0001D4A02EB81016069884201D1012000E07B
:1059F000002050B3201DFFF7FDFC78B9E06A00EBF2
:105A00008000154951F8200040B994F82C1001206D
:105A10008840124909688143104801600D480068B8
:105A2000C06AE06294F82C10012088400B49096894
:105A300008430A490860E16A01EB8101064A02EB6A
:105A40008100211DFFF715FD03E002480068C06AD0
:105A5000E06270BD48000020D401002060000020FA
:105A600010B504462CB940F6C13205A109A0FAF7D9
:105A700025FC0C48006820600B480068606010BD81
:105A8000555345525C536F757263655C7461736BFB
:105A9000732E63004572726F723A25732C25640D64
:105AA0000A000000700000205C0000201CB51A48AD
:105AB00000210B468222CDE9001018A1194800F000
:105AC0004FFC0446012C02D100F096FE0446012C46
:105AD00015D100BF502080F31188BFF34F8FBFF363
